{
  "contractName": "LaborContract",
  "abi": [
    {
      "anonymous": false,
      "inputs": [
        {
          "indexed": true,
          "internalType": "uint256",
          "name": "contractId",
          "type": "uint256"
        }
      ],
      "name": "ContractCompleted",
      "type": "event"
    },
    {
      "anonymous": false,
      "inputs": [
        {
          "indexed": true,
          "internalType": "uint256",
          "name": "contractId",
          "type": "uint256"
        },
        {
          "indexed": true,
          "internalType": "address",
          "name": "employer",
          "type": "address"
        },
        {
          "indexed": true,
          "internalType": "address",
          "name": "employee",
          "type": "address"
        },
        {
          "indexed": false,
          "internalType": "uint256",
          "name": "amount",
          "type": "uint256"
        }
      ],
      "name": "ContractCreated",
      "type": "event"
    },
    {
      "inputs": [
        {
          "internalType": "address",
          "name": "",
          "type": "address"
        }
      ],
      "name": "balances",
      "outputs": [
        {
          "internalType": "uint256",
          "name": "",
          "type": "uint256"
        }
      ],
      "stateMutability": "view",
      "type": "function",
      "constant": true
    },
    {
      "inputs": [
        {
          "internalType": "uint256",
          "name": "",
          "type": "uint256"
        }
      ],
      "name": "contracts",
      "outputs": [
        {
          "internalType": "address",
          "name": "employer",
          "type": "address"
        },
        {
          "internalType": "address",
          "name": "employee",
          "type": "address"
        },
        {
          "internalType": "uint256",
          "name": "amount",
          "type": "uint256"
        },
        {
          "internalType": "bool",
          "name": "completed",
          "type": "bool"
        }
      ],
      "stateMutability": "view",
      "type": "function",
      "constant": true
    },
    {
      "inputs": [
        {
          "internalType": "address",
          "name": "_employee",
          "type": "address"
        }
      ],
      "name": "createContract",
      "outputs": [],
      "stateMutability": "payable",
      "type": "function",
      "payable": true
    },
    {
      "inputs": [
        {
          "internalType": "uint256",
          "name": "_contractId",
          "type": "uint256"
        }
      ],
      "name": "completeContract",
      "outputs": [],
      "stateMutability": "nonpayable",
      "type": "function"
    },
    {
      "inputs": [],
      "name": "withdraw",
      "outputs": [],
      "stateMutability": "nonpayable",
      "type": "function"
    }
  ],
  "bytecode": "0x608060405234801561001057600080fd5b506105f3806100206000396000f3fe60806040526004361061004a5760003560e01c806327e235e31461004f5780633ccfd60b1461008f578063474da79a146100a657806358ee94cd146100f3578063e2d73ccd14610113575b600080fd5b34801561005b57600080fd5b5061007c61006a366004610519565b60016020526000908152604090205481565b6040519081526020015b60405180910390f35b34801561009b57600080fd5b506100a4610126565b005b3480156100b257600080fd5b506100c66100c1366004610549565b6101be565b604080516001600160a01b0395861681529490931660208501529183015215156060820152608001610086565b3480156100ff57600080fd5b506100a461010e366004610549565b610207565b6100a4610121366004610519565b610364565b336000908152600160205260409020548061017f5760405162461bcd60e51b81526020600482015260146024820152734e6f2066756e647320746f20776974686472617760601b60448201526064015b60405180910390fd5b336000818152600160205260408082208290555183156108fc0291849190818181858888f193505050501580156101ba573d6000803e3d6000fd5b5050565b600081815481106101ce57600080fd5b600091825260209091206004909102018054600182015460028301546003909301546001600160a01b0392831694509116919060ff1684565b600080828154811061021b5761021b610562565b6000918252602090912060049091020180549091506001600160a01b031633146102975760405162461bcd60e51b815260206004820152602760248201527f4f6e6c7920656d706c6f7965722063616e20636f6d706c6574652074686520636044820152661bdb9d1c9858dd60ca1b6064820152608401610176565b600381015460ff16156102ec5760405162461bcd60e51b815260206004820152601a60248201527f436f6e747261637420616c726561647920636f6d706c657465640000000000006044820152606401610176565b60038101805460ff191660019081179091556002820154828201546001600160a01b031660009081526020929092526040822080549192909161033090849061058e565b909155505060405182907f6aafa2babf7b7b7142ff5c7ff71f2b5f78e2243167a26d6b8a7f70936e76923e90600090a25050565b600034116103ab5760405162461bcd60e51b815260206004820152601460248201527326bab9ba1039b2b7321039b7b6b29032ba3432b960611b6044820152606401610176565b604080516080810182523381526001600160a01b038381166020830190815234938301938452600060608401818152815460018181018455838052865160049092027f290decd9548b62a8d60345a988386fc84ba6bc95484008f6362f93160ef3e563810180549388166001600160a01b031994851617905594517f290decd9548b62a8d60345a988386fc84ba6bc95484008f6362f93160ef3e564860180549190971692169190911790945594517f290decd9548b62a8d60345a988386fc84ba6bc95484008f6362f93160ef3e56583015593517f290decd9548b62a8d60345a988386fc84ba6bc95484008f6362f93160ef3e566909101805491151560ff1990921691909117905582549192916104c491906105a6565b9050826001600160a01b0316336001600160a01b0316827f3c82c7acfd65de4acffc8bb4aa92575cb40870181efe476224a7198d57870ad83460405161050c91815260200190565b60405180910390a4505050565b60006020828403121561052b57600080fd5b81356001600160a01b038116811461054257600080fd5b9392505050565b60006020828403121561055b57600080fd5b5035919050565b634e487b7160e01b600052603260045260246000fd5b634e487b7160e01b600052601160045260246000fd5b600082198211156105a1576105a1610578565b500190565b6000828210156105b8576105b8610578565b50039056fea2646970667358221220ad6f984dabfda6eb99465fd44e1565934fbf4286b2f72d088a737628d466fcaf64736f6c634300080d0033",
  "immutableReferences": {},
  "source": "// SPDX-License-Identifier: MIT\r\npragma solidity ^0.8.13;\r\n\r\ncontract LaborContract {\r\n    struct Contract {\r\n        address employer;\r\n        address employee;\r\n        uint256 amount;\r\n        bool completed;\r\n    }\r\n\r\n    Contract[] public contracts;\r\n    mapping(address => uint256) public balances;\r\n\r\n    event ContractCreated(uint256 indexed contractId, address indexed employer, address indexed employee, uint256 amount);\r\n    event ContractCompleted(uint256 indexed contractId);\r\n\r\n    function createContract(address _employee) public payable {\r\n        require(msg.value > 0, \"Must send some ether\");\r\n\r\n        Contract memory newContract = Contract({\r\n            employer: msg.sender,\r\n            employee: _employee,\r\n            amount: msg.value,\r\n            completed: false\r\n        });\r\n\r\n        contracts.push(newContract);\r\n        uint256 contractId = contracts.length - 1;\r\n\r\n        emit ContractCreated(contractId, msg.sender, _employee, msg.value);\r\n    }\r\n\r\n    function completeContract(uint256 _contractId) public {\r\n        Contract storage c = contracts[_contractId];\r\n        require(msg.sender == c.employer, \"Only employer can complete the contract\");\r\n        require(!c.completed, \"Contract already completed\");\r\n\r\n        c.completed = true;\r\n        balances[c.employee] += c.amount;\r\n\r\n        emit ContractCompleted(_contractId);\r\n    }\r\n\r\n    function withdraw() public {\r\n        uint256 payment = balances[msg.sender];\r\n        require(payment > 0, \"No funds to withdraw\");\r\n\r\n        balances[msg.sender] = 0;\r\n        payable(msg.sender).transfer(payment);\r\n    }\r\n}\r\n",
  "sourcePath": "C:\\Users\\User\\Desktop\\BLOCK\\contracts\\LaborContract.sol",
  "compiler": {
    "name": "solc",
    "version": "0.8.13+commit.abaa5c0e.Emscripten.clang"
  },
  "schemaVersion": "3.4.16",
  "updatedAt": "2024-06-06T14:10:21.503Z",
  "networkType": "ethereum",
  "devdoc": {
    "kind": "dev",
    "methods": {},
    "version": 1
  },
  "userdoc": {
    "kind": "user",
    "methods": {},
    "version": 1
  }
}